:020000040800F2
:100000000000022045020008950200089502000841
:100010009502000895020008950200080000000003
:100020000000000000000000000000009502000831
:1000300095020008000000009502000895020008E3
:100040009502000895020008950200089502000834
:100050009502000895020008950200089502000824
:100060009502000895020008950200089502000814
:100070009502000895020008950200089502000804
:1000800095020008950200089502000895020008F4
:1000900095020008950200089502000895020008E4
:1000A00095020008950200089502000895020008D4
:1000B00095020008950200089502000895020008C4
:1000C00095020008950200089502000895020008B4
:1000D00095020008950200089502000895020008A4
:1000E0009502000895020008950200089502000894
:1000F0009502000895020008950200089502000884
:100100009502000895020008950200089502000873
:100110009502000895020008950200089502000863
:100120009502000895020008950200089502000853
:100130009502000895020008950200089502000843
:100140009502000895020008950200089502000833
:100150009502000895020008950200089502000823
:100160009502000895020008950200089502000813
:1001700095020008950200089502000800000000A2
:08018000950200089502000839
:1001880010B5054C237833B9044B13B10448AFF3C9
:1001980000800123237010BD000000200000000033
:1001A800E002000808B5034B1BB103490348AFF34D
:1001B800008008BD0000000004000020E0020008E4
:1001C800034AD2F8883043F47003C2F88830704785
:1001D80000ED00E0174AD2F8303843F00603C2F8C1
:1001E8003038154BD3F8002442F48042C3F8002479
:1001F800D3F8082442F48042C3F80824D3F818241A
:1002080042F40002C3F8182406E00B4AD2F8183466
:1002180043F08003C2F81834074BD3F8103813F4AE
:10022800005FF2D1044AD2F8183443F40003C2F84C
:100238001834F1E70030024000000240DFF834D003
:100248000D480E490E4A002302E0D458C450043326
:10025800C4188C42F9D30B4A0B4C002301E01360FD
:100268000432A242FBD3FFF7ABFF00F011F8FFF70F
:10027800B1FF7047000002200000002000000020AD
:1002880000030008000000201C000020FEE700001A
:1002980070B50D4D0D4C641BA4100026A64209D163
:1002A8000B4D0C4C00F018F8641BA4100026A64255
:1002B80005D170BD55F8043B98470136EEE755F86F
:1002C800043B98470136F2E7F8020008F8020008F4
:1002D800F8020008FC020008F8B500BFF8BC08BC2A
:1002E8009E467047F8B500BFF8BC08BC9E467047EC
:0402F800AD0100084C
:0402FC00890100086C
:0400000508000245A8
:00000001FF
